:10000000F5C0000024C1000022C1000020C1000092
:100010001EC100001CC100001AC1000018C1000070
:1000200016C1000014C1000012C1000010C1000080
:100030000EC100000CC100000AC1000008C1000090
:1000400006C1000004C1000002C1000000C10000A0
:10005000FEC00000FCC00000FAC000000C94691053
:10006000F6C000000C9433100C940910F0C000008E
:10007000EEC00000ECC00000EAC00000E8C00000D4
:10008000E6C00000E4C00000E2C00000E0C00000E4
:10009000DEC00000DCC00000DAC00000D8C00000F4
:1000A000D6C00000D4C00000D2C00000D0C0000004
:1000B000CEC00000CCC00000CAC00000C8C0000014
:1000C000C6C00000C4C00000C2C00000C0C0000024
:1000D000BEC00000BCC00000BAC00000B8C0000034
:1000E000B6C0000000002100240027002A002D00D7
:1000F0003000330001010000040107010A01000083
:100100002200250028002B002E00310034000201BF
:100110000000050108010B01050505050705080894
:100120000808020202020A0A080804040404010181
:100130000101010101010303030303030303040796
:1001400007070C0C0C0C0C0C0C0C0202020206062D
:100150000606060606060B0B0B0B0B0B0B0B010220
:1001600010202008081020401020408002010201C9
:100170000804020101020408102040808040201081
:1001800008040201800402018040201008040201DA
:100190000804020101020408102040800102040842
:1001A0001020408000000A0B02090C0D0E08070306
:1001B000040100000000000000000000000000003A
:1001C000000000000000000000000000000000002F
:1001D00012111000000000000000000000000000EC
:1001E00000000000000000000000B31011241FBE3A
:1001F000CFEFD1E2DEBFCDBF00E00CBF14E0A0E046
:10020000B2E0EAE6FBE200E00BBF02C007900D920D
:10021000A633B107D9F729E0A6E3B4E001C01D92E7
:10022000A63BB207E1F710E0C6EFD0E000E006C061
:1002300021970109802FFE010E948413C53FD10739
:1002400080E00807A9F70E949D110C94B315D8CE41
:10025000CF92DF92EF92FF92CF93DF93EC016A018E
:100260007B01E889F98982E08083C11481EED80698
:10027000E104F104A1F060E079E08DE390E0A701F2
:1002800096010E94311321503109410951095695B7
:10029000479537952795211580E1380798F0E8892B
:1002A000F989108260E874E88EE190E0A701960178
:1002B0000E94311321503109410951095695479542
:1002C00037952795EC85FD853083EE85FF85208366
:1002D000188EEC89FD8986E08083EA89FB8980811C
:1002E00080618083EA89FB89808188608083EA89D4
:1002F000FB89808180688083EA89FB8980818F7D8A
:100300008083DF91CF91FF90EF90DF90CF900895A1
:10031000AF92BF92CF92DF92EF92FF920F931F9313
:10032000CF93DF936C017B018B01040F151FEB0151
:100330005E01AE18BF08C017D10759F06991D60108
:10034000ED91FC910190F081E02DC6011995892B6A
:1003500079F7C501DF91CF911F910F91FF90EF9039
:10036000DF90CF90BF90AF900895FC01538D448DE6
:10037000252F30E0842F90E0821B930B541710F050
:10038000CF96089501970895FC01918D828D98175D
:1003900061F0A28DAE0FBF2FB11D5D968C91928D35
:1003A0009F5F9F73928F90E008958FEF9FEF089566
:1003B000FC01918D828D981731F0828DE80FF11D2F
:1003C000858D90E008958FEF9FEF0895FC01918D4A
:1003D000228D892F90E0805C9F4F821B91098F7343
:1003E0009927089587E494E0F1DF21E0892B09F44F
:1003F00020E0822F0895FC01A48DA80FB92FB11D14
:10040000A35ABF4F2C91848D90E001968F7399274A
:10041000848FA689B7892C93A089B1898C91837028
:1004200080648C93938D848D981306C00288F38921
:10043000E02D80818F7D80830895EF92FF920F934E
:100440001F93CF93DF93EC0181E0888F9B8D8C8D80
:1004500098131AC0E889F989808185FF15C09FB774
:10046000F894EE89FF896083E889F9898081837037
:10047000806480839FBF81E090E0DF91CF911F91E6
:100480000F91FF90EF900895F62E0B8D10E00F5F07
:100490001F4F0F731127E02E8C8D8E110BC00FB6DE
:1004A00007FCFACFE889F989808185FFF5CFCE0175
:1004B000A2DFF2CFEB8DEC0FFD2FF11DE35AFF4FC2
:1004C000F0829FB7F8940B8FEA89FB898081806264
:1004D000D0CFCF93DF93EC01888D8823B1F0AA8928
:1004E000BB89E889F9898C9185FD03C0808186FDEF
:1004F0000CC00FB607FCF7CF8C9185FFF2CF80813F
:1005000085FFEDCFCE0177DFEACFDF91CF91089560
:1005100080E090E0892B21F065DF81110E940000CE
:1005200080E090E0892B49F080E090E0892B29F071
:100530000E94000081110E94000080E090E0892B61
:1005400049F080E090E0892B29F00E9400008111A1
:100550000E94000080E090E0892B49F080E090E06C
:10056000892B29F00E94000081110C94000008954D
:10057000282F30E0F901EC55FE4F9491F901E25A31
:10058000FE4F4491285E3E4FF9012491222309F445
:1005900035C0992311F191509231F8F4E92FF0E030
:1005A0008827EA52FD4F8F4F0C94841307030B03E7
:1005B000E802FF020303ED020E03140318031E03F7
:1005C000220326032C033003ED0234033A033E03D7
:1005D000809180008F7780938000E22FF0E0EE0F13
:1005E000FF1FE250FF4FA591B4918FB7F894EC91A3
:1005F000611148C040954E234C938FBF0895809160
:1006000080008F7DE8CF80918000877FE4CF84B524
:100610008F7784BDE2CF84B58F7DFBCF8091B00012
:100620008F778093B000D9CF8091B0008F7DF9CFC4
:10063000809190008F7780939000CFCF8091900031
:100640008F7DF9CF80919000877FF5CF8091A000BA
:100650008F778093A000C1CF8091A0008F7DF9CFCC
:100660008091A000877FF5CF809120018F778093C4
:100670002001B3CF809120018F7DF9CF809120019F
:10068000877FF5CF4E2BB8CFCF93DF9390E0FC015F
:10069000E25AFE4F2491885E9E4FFC01849188238C
:1006A000D1F090E0880F991FFC01EC51FF4FA5910C
:1006B000B491FC01E250FF4FC591D49161110EC07D
:1006C0009FB7F8948C91E22FE0958E238C9328812C
:1006D000E223E8839FBFDF91CF9108958FB7F8940D
:1006E000EC91E22BEC938FBFF6CF1F93CF93DF9368
:1006F000182FEB0161E0C8DF209731F460E0812F13
:10070000DF91CF911F9134CFCF3FD10511F461E03C
:10071000F6CFE12FF0E0EC55FE4FE491E150E231ED
:1007200008F0B3C0F0E08827E756FC4F8F4F0C94D9
:100730008413AB03B303B803C203CC034504D6034D
:10074000DE03E603F003FA03040413041D04450466
:10075000270431043B0484B5806884BDC7BDDF91A4
:10076000CF911F91089584B5806284BDC8BDF7CF35
:1007700080918000806880938000D0938900C0932E
:100780008800EDCF80918000806280938000D093BC
:100790008B00C0938A00E3CF8091800088608093B3
:1007A0008000D0938D00C0938C00D9CF8091B00091
:1007B00080688093B000C093B300D1CF8091B00027
:1007C00080628093B000C093B400C9CF8091900044
:1007D000806880939000D0939900C0939800BFCF19
:1007E00080919000806280939000D0939B00C09392
:1007F0009A00B5CF80919000886080939000D0934C
:100800009D00C0939C00ABCF8091A0008068809336
:10081000A0008091A0008F7B8093A000D093A900BE
:10082000C093A8009CCF8091A00080628093A0001C
:10083000D093AB00C093AA0092CF8091A0008860B3
:100840008093A000D093AD00C093AC0088CF80917E
:100850002001806880932001D0932901C093280152
:100860007ECF80912001806280932001D0932B0164
:10087000C0932A0174CF8091200188608093200169
:10088000D0932D01C0932C016ACFC038D1050CF054
:100890003ECF34CF863308F0865320917B00982FCB
:1008A0009870277F922B90937B0087708064809351
:1008B0007C0080917A00806480937A0080917A0035
:1008C00086FDFCCF809178009091790008952FB734
:1008D000F89460913F04709140048091410490919C
:1008E00042042FBF089587E892E0089588EA92E0D5
:1008F0000895FC01848595850895AF92BF92CF92AB
:10090000DF92EF92FF920F931F93CF93DF9300D06C
:100910001F921F92CDB7DEB7643671054CF0FC0113
:10092000EA57FB4F2081F12CE12C222309F476C0F9
:10093000DA017B018C01BC01615E7D4FED91FC9180
:100940000190F081E02DCA011995680128EEC21AC4
:100950002DEFD20A2FEFD6012C93F801E75EFD4F61
:100960002EEF208331968083319690833196292F04
:10097000280F209520833196E0821696FC9245E060
:1009800050E030E020E0DC011696A417B50734F003
:100990006191260F311D4F5F5F4FF7CF7C01B8E0AB
:1009A000EB0EF11C800F911FFC01E15EFD4F2095C5
:1009B0002083E1E0EE16E2E0FE06B4F45601C50144
:1009C0008C199D098E159F054CF5D80112968D91B5
:1009D0009C91F50161915F01DC01ED91FC91019029
:1009E000F081E02D1995EBCF8FE392E09A83898314
:1009F00083E08B8388EB92E09D838C83D801ED911B
:100A0000FC910190F081E02DAE014F5F5F4F67E0F8
:100A100070E0C8011995EE24EA94FE2CC7010F90EE
:100A20000F900F900F900F90DF91CF911F910F912A
:100A3000FF90EF90DF90CF90BF90AF900895CF934D
:100A4000DF9300D01F921F92CDB7DEB72FE332E0C5
:100A50003A83298321E02B839D838C83AE014F5FF2
:100A60005F4F67E070E080E095E047DF0F900F9008
:100A70000F900F900F90DF91CF9108950F931F93D8
:100A8000CF93DF9300D000D000D01F92CDB7DEB758
:100A90008C0183E392E09A8389831B821C821D82EE
:100AA0001E821F82188619861A86D801ED91FC9144
:100AB0000190F081E02DAE014F5F5F4F6AE070E082
:100AC000C801199504DFF8016087718782879387D1
:100AD0002A960FB6F894DEBF0FBECDBFDF91CF913F
:100AE0001F910F9108958A579B4FFC0180810895B3
:100AF000CF92DF92EF92FF92DC011D921D921D9228
:100B00001C921397FB0130E020E0419150E0022E4F
:100B100002C0440F551F0A94E2F7052E000C660B25
:100B2000770BCD90DD90ED90FC9013974C295D29CB
:100B30006E297F294D935D936D937C931397285F66
:100B40003F4F2032310509F7FF90EF90DF90CF90B3
:100B50000895FC014083518312821382089570E04E
:100B600060E08BE0C2DD70E060E08AE0BEDD60E066
:100B700089E0FEDC60E088E0FBDC60E08DE0F8CC42
:100B8000CF92DF92EF92FF92209143043091440480
:100B9000032E000C440B550B2059314041095109DB
:100BA000AFEFB0E00E94271320E73EEF4FEF5FEF7B
:100BB0000E940B136901309339042093380460E0DC
:100BC00087E0D6DC61E086E0D3DCB6018AE08DDD2B
:100BD00061E08DE0FF90EF90DF90CF90C9CCCF9295
:100BE000DF92EF92FF922091430430914404032E50
:100BF000000C440B550B2855324041095109AFEF09
:100C0000B0E00E94271327EA31E040E050E00E9464
:100C10000B136901309339042093380461E087E0B5
:100C2000A7DC60E086E0A4DCB6018AE05EDD61E07E
:100C30008DE0FF90EF90DF90CF909ACCCF92DF9233
:100C4000EF92FF922091450430914604032E000C50
:100C5000440B550B2855324041095109AFEFB0E024
:100C60000E94271327EA31E040E050E00E940B1376
:100C70006901309337042093360461E089E078DC21
:100C800060E088E075DCB6018BE02FDD61E08DE08F
:100C9000FF90EF90DF90CF906BCCCF92DF92EF92EE
:100CA000FF922091450430914604032E000C440B22
:100CB000550B2059314041095109AFEFB0E00E9476
:100CC000271320E73EEF4FEF5FEF0E940B13690100
:100CD000309337042093360460E089E049DC61E01A
:100CE00088E046DCB6018BE000DD61E08DE0FF903E
:100CF000EF90DF90CF903CCC4F925F926F927F92BB
:100D00008F929F92AF92BF92EF92FF920F931F9399
:100D1000CF93DF9300D01F92CDB7DEB77C018B015C
:100D2000CE010196E5DE89819A81AB81BC814C01BF
:100D30005D0124E0820E911CA11CB11CA8014D5F35
:100D40005F4FFA0124E030E02901712C612C481436
:100D500059046A047B0428F4618161932F5F3F4F3B
:100D6000F3CFF801E80FF91F1382F7015383428391
:100D700004960F900F900F900F90DF91CF911F91DD
:100D80000F91FF90EF90BF90AF909F908F907F90CA
:100D90006F905F904F9008950F931F93CF93DF93C1
:100DA0008C01EC012696CE01A7DFD8011A96ED91B1
:100DB000FC91CE01DF91CF911F910F91199481EF9A
:100DC00092E0089587E092E0089582E193E008952B
:100DD00083E393E008954F925F926F927F928F9298
:100DE0009F92AF92BF92EF92FF920F931F93CF9378
:100DF000DF9300D01F92CDB7DEB77C018B01FB01E2
:100E00008191BF01F7018283CE01019671DE898154
:100E10009A81AB81BC814C015D01F5E08F0E911C84
:100E2000A11CB11CA8014C5F5F4FFA0125E030E026
:100E30002901712C612C481459046A047B0428F49C
:100E4000618161932F5F3F4FF3CFF801E80FF91FE6
:100E50001482F7015483438305960F900F900F90EF
:100E60000F90DF91CF911F910F91FF90EF90BF9066
:100E7000AF909F908F907F906F905F904F9008956C
:100E800086E493E0089587E693E008954F925F9299
:100E90006F927F928F929F92AF92BF92CF92DF928A
:100EA000EF92FF920F931F93CF93DF93CDB7DEB7EF
:100EB0002C970FB6F894DEBF0FBECDBF7C018B011F
:100EC000DB018C9190E0F7019383828311962C9142
:100ED000922B938382836E5F7F4FCE01019608DE53
:100EE00089809A80AB80BC8024013501F6E04F0EEA
:100EF000511C611C711C98012B5F3F4FF90186E06A
:100F000090E0AC0170E060E044155505660577059A
:100F100020F4418141930196F4CFB4016A5F7F4F81
:100F2000F801E80DF91D1582D70115963C932E9313
:100F30001497600F711FCE010596DADDBAE08B0EB3
:100F4000911C4D805E806F807884C401092C000C58
:100F5000AA0BBB0B5C016D01A40CB51CC61CD71CF5
:100F6000F801E80DF91DAF01401B510B70E060E086
:100F70004A155B056C057D0538F42191AF0142509F
:100F80005109DA012C93EFCF480C591CB801640DBC
:100F9000751DFB0131971082C4010197800F911FCD
:100FA000F70197838683CE010996A2DD92012C5F1B
:100FB0003F4F89849A84AB84BC84A901032E000C22
:100FC000660B770B480D591D6A1D7B1DF801E20F5A
:100FD000F31FCF01801B910BB0E0A0E084179507B1
:100FE000A607B70728F48191DF0112978C93F1CF00
:100FF000C901880D991DF801E80FF91FDF0111974C
:101000001C9221503109020F131FD70119961C930E
:101010000E9318972181428150E070E060E0BA01A0
:1010200055274427522B2081422B2381722BF70115
:10103000428753876487758704962C960FB6F89479
:10104000DEBF0FBECDBFDF91CF911F910F91FF90FB
:10105000EF90DF90CF90BF90AF909F908F907F9058
:101060006F905F904F90089580E893E0089581EA33
:1010700093E00895FC01DB014C9150E070E060E0EA
:10108000428353836483758311968C911197582BF7
:10109000428353836483758312968C911297682BD5
:1010A000428353836483758313968C911397782BB3
:1010B000428353836483758314964C91149750E054
:1010C00070E060E0468357836087718715968C9146
:1010D0001597582B468357836087718716968C9196
:1010E0001697682B468357836087718717968C9174
:1010F000782B468357836087718788E090E0089556
:10110000DC01FB0112968C911297808313968C91CF
:101110001397818314968C911497828315968C91E2
:101120001597838316968C911697848317968C91C6
:101130001797858318968C911897868319968C91AA
:10114000878388E090E00895CF93DF93FC010190BE
:101150000020E9F73197AF01481B590BBC0187E428
:1011600094E0D6D8EC0142E050E06FEA73E087E407
:1011700094E0CED88C0F9D1FDF91CF910895CF932F
:10118000DF93209186092223B1F0EC0186EB93E0F6
:10119000DBDF8091F8049091F9046091F60470917E
:1011A000F704DC01ED91FC910190F081E02DAE019E
:1011B000DF91CF91199482EB93E0DF91CF91C4CF6F
:1011C0000F931F93CF93DF938C01FC018281938156
:1011D00036DCF801C281D3816BEC73E0CE010E9452
:1011E0008514892BC1F480910002811114C088EC10
:1011F00090E090934604809345044FDD8091000277
:1012000081116FC085EC93E01ADCC801DF91CF91AA
:101210001F910F91B4CF60ED73E0CE010E94851451
:10122000892B61F480910002811108C080E293E073
:10123000909346048093450401DDE0CF66ED73E0B2
:10124000CE010E948514892B61F4809100028111E6
:1012500008C088EC90E0909344048093430490DCB1
:10126000CDCF6BED73E0CE010E948514892B61F424
:1012700080910002811108C080E293E090934404C1
:1012800080934304ACDCBACF6EED73E0CE010E94D4
:101290008514892B81F48091000281110CC084EFA8
:1012A00091E0909346048093450490934404809386
:1012B000430455DCA3CF63EE73E0CE010E94851496
:1012C000892B19F41092000299CF64EF73E0CE01DC
:1012D0000E948514892B09F091CF81E08093000250
:1012E0008DCF80EC93E090CFEF92FF920F931F93FE
:1012F000CF93DF937C018B01DC011296ED91FC9181
:10130000EF0109900020E9F72197CE1BDF0BAE011A
:1013100070E060E0C8011DDCF70162817381AE01FD
:10132000C80104960E947C14CE010496DF91CF91EF
:101330001F910F91FF90EF9008954F925F926F92DF
:101340007F928F929F92AF92BF92CF92DF92EF9255
:10135000FF920F931F93CF93DF93EC017B018A8160
:10136000FB0180838B8181838C8182838D81838348
:101370003496412C512C320104E010E09F012F5F84
:101380003F4FCF010296DF011396A8010C5F1F4F5C
:101390008A809B80AC80BD80481459046A047B0419
:1013A000C8F4AA85BB85A40FB51F14974C9111965C
:1013B0002C91119712969C91129713968C914083C1
:1013C0002183928383838FEF481A580A680A780A28
:1013D0003496D4CF4C8540834D85F90140832E85CA
:1013E000FC0120838F858C93F701E00FF11F412CC6
:1013F000512C3201AF019F012F5F3F4FCF01029669
:10140000DF0113960C5F1F4F8C849D84AE84BF84D4
:10141000481459046A047B04D8F4CF01841B950B4B
:10142000AC89BD89A80FB91F3C9111962C911197D9
:1014300012969C91129713968C91308321839283FC
:1014400083838FEF481A580A680A780A3496D3CFF4
:101450004E8940834F89F9014083288DFC01208308
:10146000898D8C93412C512C32018E899F89A88DB6
:10147000B98D481659066A067B0678F55201AA0C02
:10148000BB1CEC8DFD8DEA0DFB1DA081B181FD0122
:1014900001900020E9F731976F01CA1ADB0AA60113
:1014A00070E060E0C701800F911F53DB0C5F1F4F9E
:1014B0008C8D9D8DA80EB91EF50160817181A601EC
:1014C000C701800F911F0E947C140C0D1D1DFFEFA2
:1014D0004F1A5F0A6F0A7F0AC8CFC801DF91CF9108
:1014E0001F910F91FF90EF90DF90CF90BF90AF9042
:1014F0009F908F907F906F905F904F900895EF92A4
:10150000FF920F931F93CF93DF938C017B01DC013C
:1015100012962C911297FB012193CF011396ED9116
:10152000FC91EF0109900020E9F72197CE1BDF0B1A
:10153000AE0170E060E00DDBD80113966D917C91F7
:10154000AE01C70105960E947C14CE010596DF917D
:10155000CF911F910F91FF90EF900895CF92DF925E
:10156000EF92FF920F931F93CF93DF936C01EB01E8
:10157000DC0112968C911297888313968C911397A5
:1015800089831496ED91FC91DF010D900020E9F71D
:101590008D01015011090E1B1F0BA80170E060E0C6
:1015A000CE010296D6DAF60164817581A801CE01DA
:1015B00006960E947C14C8010696F601A681B781A2
:1015C000FD0101900020E9F731977F01EA1AFB0A3B
:1015D000A70170E060E08C0F9D1FBBDA065F1F4F14
:1015E000D60116966D917C91A701CE01800F911FB7
:1015F0000E947C140E0D1F1DF601A085B185FD0112
:1016000001900020E9F731977F01EA1AFB0AA70150
:1016100070E060E0CE01800F911F9BDA0C5F1F4FDE
:10162000D60118966D917C91A701CE01800F911F74
:101630000E947C14C701800F911FF60162854385CB
:1016400034852585C80FD91F688349833A832B8346
:101650000496DF91CF911F910F91FF90EF90DF9053
:10166000CF9008952F923F924F925F926F927F9208
:101670008F929F92AF92BF92CF92DF92EF92FF92A2
:101680000F931F93CF93DF93CDB7DEB72E970FB68F
:10169000F894DEBF0FBECDBF8C016B01DB018D90D6
:1016A0009D90AD90BC90FC0182819381A481B58115
:1016B00088159905AA05BB0570F4B401660F771F5C
:1016C000660F771F828593850E94A013D8011B9611
:1016D0009C938E931A97F80182829382A482B5829A
:1016E000C60140E050E0BA01A4E0EA2EF12C9801D6
:1016F0002A5F3F4FDC011596EC91159716964C909A
:101700001697512C712C612C3201552444245E2AE9
:101710001496EC9114974E2A1796EC917E2AD701D5
:101720001701E4E02E0E311C71010496F80182804D
:101730009380A480B580481559056A057B05A8F4F7
:1017400046825782608671861497A284B384AA0D5C
:10175000BB1DE4E0BE2EF90101900D92BA94E1F7B1
:101760004F5F5F4F6F4F7F4FC5CF84859585A685AF
:10177000B78584159505A605B70568F4B201660F0F
:10178000771F660F771F84899589DAD7D801559618
:101790009C938E935497F801448655866686778687
:1017A000C601820D931D412C512C32011C01980160
:1017B000205F3F4FDC0111966C91119712968C902F
:1017C0001297912CB12CA12C540199248824962A8B
:1017D0006C91862A13966C91B62AB4E0EB0EF11C3C
:1017E000F801448555856685778544165506660655
:1017F0007706C0F4808A918AA28AB38ABC016219F2
:101800007309A489B589A60FB71F64E0F901019097
:101810000D926A95E1F7BFEF4B1A5B0A6B0A7B0AE0
:101820000496C8CF86899789A08DB18D88159905B2
:10183000AA05BB0558F4B401660F771F848D958DFA
:101840007FD7D8015D969C938E935C97F801868A2A
:10185000978AA08EB18E412C512C32011801FAE1E9
:101860002F0E311CF80186899789A08DB18D4816FD
:1018700059066A067B0608F05BC0B6016E0D7F1D37
:10188000CE01019635D997012C5F3F4F3E872D87BA
:1018900089809A80AB80BC80C901032E000CAA0B02
:1018A000BB0BAC01BD01480D591D6A1D7B1D49874D
:1018B0005A876B877C87F901EC0DFD1D9F012C1960
:1018C0003D09B90190E080E029853A854B855C852A
:1018D000621773078407950728F42191DF01129797
:1018E0002C93ECCFED84FE84E80CF91CF601EE0D90
:1018F000FF1D319710828D859E8501978C0D9D1D52
:10190000D8015B969C938E935A97C201880F991FBA
:101910005C96ED91FC91E80FF91FD1018D919C919E
:1019200091838083BFEF4B1A5B0A6B0A7B0A9ACFC5
:10193000C7012E960FB6F894DEBF0FBECDBFDF9164
:10194000CF911F910F91FF90EF90DF90CF90BF90BC
:10195000AF909F908F907F906F905F904F903F904F
:101960002F9008952F923F924F925F926F927F92A5
:101970008F929F92AF92BF92CF92DF92EF92FF929F
:101980000F931F93CF93DF93CDB7DEB7A6970FB614
:10199000F894DEBF0FBECDBF8C010E9467044B01DF
:1019A0005C01980125573B4F3E8B2D8BF9018081BF
:1019B0009181A281B38175016401C81AD90AEA0A2A
:1019C000FB0AD701C601893F9A42A105B10510F073
:1019D00035971082180134E8231A3BEF330AD101FE
:1019E0008D919C91892B79F0F801E157FB4F808113
:1019F0009181A281B38188159905AA05BB0518F4C8
:101A0000F1011182108298012C573B4F3A8B298BA0
:101A1000A80140585B4F5C8B4B8BC8014896988F50
:101A20008F8BD801AA57BB4FBC8FAB8FF801EC56F8
:101A3000FB4FFE8FED8F215F3F4F38A32F8F42501A
:101A40005109588B4F8786599B4F9A8F898F1996CA
:101A5000BAA3A9A3A50194012C5E3F4F4F4F5F4F3E
:101A60002BA33CA34DA35EA3F80184899589A68985
:101A7000B789892B8A2B8B2BB9F5D80112968D91BA
:101A80009C91DC01ED91FC910284F385E02D199588
:101A90009C0197FF3DC0F801EA57FB4F80818823E6
:101AA00001F17801B9E7EB1ABBEFFB0AF70180817E
:101AB0009181A281B381A5019401281B390B4A0BA6
:101AC0005B0BDA01C901853C9940A105B10548F0DD
:101AD000C8010E943E05D7018D929D92AD92BC92A5
:101AE000139790E080E0B4C10E94670468197909F7
:101AF0008A099B09F801C488D588E688F788C61644
:101B0000D706E806F90608F0B8CF8EEF9FEFA0C120
:101B1000A989BA898D919C911197820F931F8D93FA
:101B20009C93F1014081518147305105F9F4A98D11
:101B3000BA8D8D919C911197AC014F5F5F4F4D9382
:101B40005C93800F911FFC01208FAF85B8898D9128
:101B50009C91119701978D939C93892B09F084CFC9
:101B600088E090E0F101918380837ECF411551059B
:101B700021F52F3F310581F481E090E0918380834E
:101B8000CBA0DCA0EDA0FEA0A9A1BAA1CD92DD92D0
:101B9000ED92FC92139768CF0E9467046819790947
:101BA0008A099B09693873418105910508F45CCF66
:101BB000F801EA57FB4F1082A8CF4130510589F454
:101BC0002E3F310519F482E090E0CCCF11821082D3
:101BD000EB8DFC8D8081811147CFC8010E943E05AD
:101BE00043CF4230510591F4AF85B8892D933C9392
:101BF000E98DFA8D1182108283E090E0D1018D93FE
:101C00009C93E989FA89318320832ECF4330510593
:101C100071F4322F2227AF85B8898D919C9111974D
:101C2000280F391F2D933C9384E090E09BCF4430E4
:101C3000510571F460E071E054D58F3F910529F4AE
:101C400085E090E0918380830FCF118210820CCFCA
:101C50004530510569F4AB89BC892D933C9386E0EE
:101C600090E091838083A989BA892D933C93FCCE1F
:101C700046305105A1F4322F2227EB89FC8980815F
:101C80009181280F391F3183208387E090E0D101B3
:101C90008D939C93EF85F889808191815ECF483048
:101CA000510509F0E1CE1182108260E071E019D592
:101CB0008F3F910509F0D8CEAB89BC89ED91FC919D
:101CC000309709F0DEC0C8010E943E0587E292E02D
:101CD0009A8389831C821B8281EB93E09E838D8390
:101CE00098878F839A8789871B861C861D861E8608
:101CF0006801B8EECB1ABBEFDB0A7801E6EBEE1A0F
:101D0000EBEFFE0A412C22E0522E612C712CD60101
:101D1000ED91FC913097A9F1848195819C838B830F
:101D2000808191819E838D8382819381DC01ED91FD
:101D3000FC910480F581E02D199598878F83D60159
:101D4000ED91FC9182819381DC01ED91FC91068003
:101D5000F781E02D19959A8789874B865C866D8679
:101D60007E86D601ED91FC9160857185D801ED915B
:101D7000FC910190F081E02DAE014F5F5F4FC801F3
:101D80001995B2E0CB0ED11CEC14FD0409F0BFCFC5
:101D9000412C92E0592E612C712CF701A081B18168
:101DA0001097E1F112968D919C9113979C838B83F0
:101DB00014968D919C9115979E838D83ED91FC9146
:101DC00011970480F581E02DCD01199598878F83B7
:101DD000D7018D919C91DC01ED91FC910680F781FA
:101DE000E02D19959A8789874B865C866D867E865D
:101DF000D801ED91FC91C080D180F7018081918163
:101E0000DC01ED91FC910280F381E02D1995AE018A
:101E10004F5F5F4FBC01C801F6011995F2E0EF0E6C
:101E2000F11CE214F30409F0B8CFF801EA57FB4FB4
:101E300081E08083319680829182A282B382AD89D3
:101E4000BE898D929D92AD92BC9213978FEF9FEFBA
:101E5000A6960FB6F894DEBF0FBECDBFDF91CF912F
:101E60001F910F91FF90EF90DF90CF90BF90AF90B8
:101E70009F908F907F906F905F904F903F902F90AA
:101E80000895EA30F10509F09BC083E392E09A835C
:101E900089831B821C821D821E821F8218861986DE
:101EA0001A860E946704F801C084D184E284F38416
:101EB0009B01AC012C193D094E095F0969017A01AA
:101EC0006F89788DCE010196D5D8C701B60128EE6D
:101ED00033E040E050E0C5D369017A019B01AC01D9
:101EE0008B819C81AD81BE818C0D9D1DAE1DBF1D62
:101EF0008B839C83AD83BE8360E472E48FE090E0CB
:101F0000E1D3CF80D884E984FA84DC01CB018C0D45
:101F10009D1DAE1DBF1D8F839887A987BA870E941C
:101F20006704CF80D884E984FA8436E3D31A35E68F
:101F3000E30A34ECF30A28EE33E040E050E091D3BA
:101F400029013A019B01AC0160E472E48FE090E06A
:101F5000B9D3A7019601261B370B480B590BCA01B1
:101F6000B9012B813C814D815E81215031094109AC
:101F7000510969017A01C418D508E608F708260155
:101F8000370120E03AEC4AE95BE36BD3420E531E83
:101F9000641E751ED8011C964D925D926D927C92C6
:101FA0001F97F801608B718B828B938B0E94670463
:101FB000AD89BE896D937D938D939C93139754CD7A
:101FC000E630F10551F46F89788D8D8D9E8D4ADB59
:101FD00081E0EF8DF8A1808347CDEB30F10521F44E
:101FE000AB8DBC8D1C9240CDEF53FE4FEE0FFF1F0B
:101FF000E00FF11F80819181009709F435CDDC015C
:10200000ED91FC910190F081E02D6F89788D19950B
:102010002BCD1F920F920FB60F9211240BB60F9279
:102020002F933F934F935F936F937F938F939F93E0
:10203000AF93BF93EF93FF9387E494E00E94FB017B
:10204000FF91EF91BF91AF919F918F917F916F9190
:102050005F914F913F912F910F900BBE0F900FBE4C
:102060000F901F9018951F920F920FB60F92112488
:102070000BB60F922F938F939F93EF93FF93E09163
:102080005704F09158048081E0915D04F0915E0462
:1020900082FD1DC09081809160048F5F8F732091BD
:1020A0006104821741F0E0916004F0E0E95BFB4FCE
:1020B000958F80936004FF91EF919F918F912F9165
:1020C0000F900BBE0F900FBE0F901F901895808140
:1020D000F2CF1F920F920FB60F9211242F933F93BE
:1020E0008F939F93AF93BF9380913F04909140044F
:1020F000A0914104B091420430913E0423E0230FAB
:102100002D3758F50196A11DB11D20933E048093F3
:102110003F0490934004A0934104B0934204809103
:102120003A0490913B04A0913C04B0913D04019687
:10213000A11DB11D80933A0490933B04A0933C04ED
:10214000B0933D04BF91AF919F918F913F912F919B
:102150000F900FBE0F901F90189526E8230F029640
:10216000A11DB11DD2CF10924A041092490488EEED
:1021700093E0A0E0B0E080934B0490934C04A093D4
:102180004D04B0934E048BE492E090934804809306
:10219000470485EC90E0909354048093530484ECBE
:1021A00090E0909356048093550480EC90E09093D7
:1021B00058048093570481EC90E090935A048093E4
:1021C000590482EC90E090935C0480935B0486EC6D
:1021D00090E090935E0480935D04109260041092EE
:1021E0006104109262041092630489E692E0909375
:1021F00001058093000587E494E0909303058093A4
:10220000020580E091EEA0E0B0E080930405909399
:102210000505A0930605B0930705109286098DE584
:1022200092E090939509809394091092AA091092D4
:10223000AB091092AC091092AD091092B10910923D
:10224000B009E8E1F9E01192119289E0EA34F80767
:10225000D1F7EAE4F9E01192119289E0EC37F8073E
:10226000D1F7E8E1F5E088E197E011928E179F073A
:10227000E1F7E8E1F7E0119289E0E831F807D9F7F2
:102280001092960910929709109298091092990944
:1022900010929F0910929E091092A0091092A10914
:1022A0001092A2091092A3091092A9091092A809EC
:1022B000109214051092150510921605109217052C
:1022C0002FE732E03093FD042093FC0481EB93E090
:1022D0009093FF048093FE0444E054E05093F30491
:1022E0004093F2044CEF54E05093F5044093F4040F
:1022F0001092FB041092FA0443E752E05093E50475
:102300004093E4043093EB042093EA049093ED04AB
:102310008093EC0480EE98E09093EF048093EE04B9
:1023200081E090E09093F1048093F00484E194E0E4
:102330009093E9048093E8040895789484B58260CA
:1023400084BD84B5816084BD85B5826085BD85B559
:10235000816085BD80916E00816080936E001092D7
:102360008100809181008260809381008091810052
:1023700081608093810080918000816080938000E3
:102380008091B10084608093B1008091B000816041
:102390008093B00080919100826080939100809141
:1023A0009100816080939100809190008160809382
:1023B00090008091A10082608093A1008091A10093
:1023C00081608093A1008091A00081608093A00033
:1023D000809121018260809321018091210181609F
:1023E0008093210180912001816080932001809160
:1023F0007A00846080937A0080917A008260809372
:102400007A0080917A00816080937A0080917A00CE
:10241000806880937A001092C10040E855E260E045
:1024200070E087E494E00E94280161E08BE00E9464
:10243000440361E089E00E94440361E088E00E9477
:10244000440361E087E00E94440361E086E00E946B
:10245000440361E08AE00E94440360E086E30E9456
:10246000440360E087E30E94440361E08DE00E9442
:102470004403409104055091050560910605709153
:10248000070580910205909103050E942801109292
:102490007D0910927C0910927F0910927E0910929A
:1024A0008309109282091092810910928009E8E153
:1024B000F9E090E080E021913191232B09F062C096
:1024C000FC01EE0FFF1FE85EF64F22EF34E0318390
:1024D000208383589F4F9093F7048093F60480E005
:1024E00095E09093F9048093F804EAE4F9E090E031
:1024F00080E021913191232B09F04AC0FC01EE0FBD
:10250000FF1FE65BF64F24EE34E0318320838C59C5
:102510009F4F9093E7048093E60486E294E00E9444
:102520001F050BED13E086EDE82E83E0F82E90ED0D
:10253000C92E93E0D92E2BECA22E23E0B22E80914F
:102540000002882309F457C086E30E944A04EC0184
:10255000909346048093450487E30E944A04909335
:10256000440480934304C03921E0D207BCF40E94A4
:102570004D06B092FF04A092FE048CEF94E00E94FE
:10258000BF0814C001968931910509F094CFADCFF1
:1025900001968931910509F0ACCFBFCFCE018159A9
:1025A0009140873C9105A8F40E94AF0580914304B7
:1025B00090914404803921E09207ACF40E94C00558
:1025C000F092FF04E092FE048CEF94E00E94BF08BA
:1025D00012C0C935D24054F30E941E06D092FF04A7
:1025E000C092FE04CACF9C0121593140273C3105DD
:1025F00040F40E94AF0580E095E0B4D90E948802C3
:102600009ECF89359240BCF30E94EF051093FF04E2
:102610000093FE04D9CF052E97FB16F400940FD03B
:1026200057FD05D01ED007FC02D046F408C05095D7
:102630004095309521953F4F4F4F5F4F08959095AE
:102640008095709561957F4F8F4F9F4F08952BD048
:10265000A59F900DB49F900DA49F800D911D1124F6
:102660000895A1E21A2EAA1BBB1BFD010DC0AA1FD3
:10267000BB1FEE1FFF1FA217B307E407F50720F0EB
:10268000A21BB30BE40BF50B661F771F881F991F66
:102690001A9469F760957095809590959B01AC01AF
:1026A000BD01CF010895A29FB001B39FC001A39FB8
:1026B000700D811D1124911DB29F700D811D11247B
:1026C000911D0895DB018F939F93C1DFBF91AF915F
:1026D000A29F800D911DA39F900DB29F900D11247C
:1026E000089597FB072E16F4009406D077FD08D0C6
:1026F00013D007FC05D03EF4909581959F4F089527
:10270000709561957F4F0895EE0FFF1F881F8BBF57
:102710000790F691E02D1994AA1BBB1B51E107C04D
:10272000AA1FBB1FA617B70710F0A61BB70B881F61
:10273000991F5A95A9F780959095BC01CD010895F0
:102740004F925F926F927F928F929F92AF92BF92C1
:10275000CF92DF92EF92FF920F931F93CF93DF936D
:102760008C01009791F4CB01DF91CF911F910F91D4
:10277000FF90EF90DF90CF90BF90AF909F908F90A1
:102780007F906F905F904F90C9C0FC01E60FF71FDC
:102790009C0122503109E217F30708F4AAC0D901BD
:1027A000CD91DC911197C617D70718F1C530D10527
:1027B00070F0CE0104978617970748F0C61BD70B19
:1027C0002297C193D1936D937C93CF0143D1C801DC
:1027D000DF91CF911F910F91FF90EF90DF90CF90FD
:1027E000BF90AF909F908F907F906F905F904F9031
:1027F00008955B01AC1ABD0A4C018C0E9D1EA09180
:10280000B409B091B509512C412CF12CE12C109751
:1028100031F58091B2099091B3098815990509F0B5
:102820005CC04616570608F058C08091010290918E
:102830000202009741F48DB79EB740910502509176
:102840000602841B950BE817F90708F052C0F093B5
:10285000B309E093B209F90171836083B8CF8D9118
:102860009C91119712966C90129713967C901397E7
:10287000A815B90559F56C0142E0C40ED11CCA1463
:10288000DB0420F1AC014A195B09DA0112961597B5
:1028900080F06282738251834083D9016D937C936F
:1028A000E114F10471F0D7011396FC93EE931297A3
:1028B0008ECF22968C0F9D1FF90191838083F301A7
:1028C000EFCFF093B509E093B40981CF48165906CC
:1028D00008F42C017D01D3019ACFCB011FD07C01DC
:1028E000009739F0AE01B80107D0C801B3D0870115
:1028F0006ECF10E000E06BCFFB01DC0102C0019065
:102900000D9241505040D8F70895FB01DC018D91A4
:10291000019080190110D9F3990B08950F931F931B
:10292000CF93DF938230910510F482E090E0E09144
:10293000B409F091B50930E020E0B0E0A0E03097B4
:1029400099F42115310509F44AC0281B390B2430AC
:102950003105D8F58A819B816115710589F1FB01EB
:1029600093838283FE0111C04081518102811381D2
:1029700048175907E0F04817590799F4109761F084
:1029800012960C93129713961C933296CF01DF91F7
:10299000CF911F910F9108950093B4091093B50939
:1029A000F4CF2115310551F04217530738F0A90132
:1029B000DB019A01BD01DF01F801C1CFEF01F9CFC1
:1029C0009093B5098093B409CDCFFE01E20FF31FB8
:1029D000819391932250310939832883D7CF209155
:1029E000B2093091B309232B41F4209103023091B5
:1029F00004023093B3092093B2092091010230916F
:102A000002022115310541F42DB73EB74091050270
:102A100050910602241B350BE091B209F091B309E5
:102A2000E217F307A0F42E1B3F0B2817390778F0A5
:102A3000AC014E5F5F4F2417350748F04E0F5F1F04
:102A40005093B3094093B209819391939FCFF0E0E3
:102A5000E0E09CCFCF93DF930097E9F0FC01329741
:102A600013821282A091B409B091B509ED0130E052
:102A700020E01097A1F420813181820F931F2091D3
:102A8000B2093091B3092817390709F061C0F093F2
:102A9000B309E093B209DF91CF910895EA01CE170F
:102AA000DF07E8F54A815B819E0141155105B1F7C9
:102AB000E901FB83EA8349915991C40FD51FEC17B3
:102AC000FD0761F4808191810296840F951FE901D1
:102AD00099838883828193819B838A83F0E0E0E0FD
:102AE00012968D919C9113970097B9F52D913C9179
:102AF0001197CD010296820F931F2091B209309158
:102B0000B3092817390739F6309751F51092B509EE
:102B10001092B409B093B309A093B209BCCFD38388
:102B2000C28340815181840F951FC817D90761F472
:102B30004E5F5F4F88819981480F591F51834083B1
:102B40008A819B81938382832115310509F0B0CF5F
:102B5000F093B509E093B4099ECFFD01DC01C0CF2D
:0A2B600013821282D7CFF894FFCF42
:102B6A00010000B6098000726F7373657269616C47
:102B7A005F6D7367732F52657175657374506172F7
:102B8A00616D0000000000AE0A46074307400700D7
:102B9A0000000080083A0837083408000000007F67
:102BAA000AEB06E806E506000000001D028801B5EA
:102BBA00016902E601C401D801000000009D093242
:102BCA000BE206DF06000000007D04B20C7305006C
:102BDA00000000CC06790476047304000000007437
:102BEA00097C0676047304393932636538613136F3
:102BFA0038376365633863386264383833656337F6
:102C0A0033636134316431007374645F6D73677365
:102C1A002F537472696E67004D657373616765201F
:102C2A0066726F6D206465766963652064726F7081
:102C3A007065643A206D657373616765206C6172B3
:102C4A00676572207468616E206275666665722EA9
:102C5A000039663065393862646136353938313958
:102C6A003836646466353361666137613430653499
:102C7A003900313161626437333163323539333384
:102C8A003236316364363138336264313264363213
:102C9A00393500726F7373657269616C5F6D736742
:102CAA00732F4C6F6700306164353166383866635C
:102CBA00343438393266386331303638343037375D
:102CCA0036343630303500726F7373657269616CF1
:102CDA005F6D7367732F546F706963496E666F0017
:102CEA0063643731363663373463353532633331AB
:102CFA0031666263633266653561376263323839D9
:102D0A00007374645F6D7367732F54696D65000D8A
:102D1A000A004E6F7420436F6E6E656374656400BB
:102D2A00545255450046414C5345004C45465400C3
:102D3A00524947485400444F574E00555000535487
:102D4A004F500044495341424C455F4A4F595354EE
:102D5A0049434B00454E41424C455F4A4F595354F3
:102D6A0049434B006A6F79737469636B5F73656E6D
:102D7A00736F72006A6F79737469636B5F636F6DE7
:102D8A006D616E6473004E6F646520496E69746983
:062D9A0061746564000095
:00000001FF
